:020000040000fa
:080000000002040000000000f2
:020000040000fa
:0400080034030000bd
:020000040000fa
:04000c0034030000b9
:020000040000fa
:0400100034030000b5
:020000040000fa
:0400140034030000b1
:020000040000fa
:0400180034030000ad
:020000040000fa
:04001c0034030000a9
:020000040000fa
:0400200034030000a5
:020000040000fa
:0400240034030000a1
:020000040000fa
:04002800340300009d
:020000040000fa
:04002c003403000099
:020000040000fa
:040030003403000095
:020000040000fa
:040034003403000091
:020000040000fa
:04003800340300008d
:020000040000fa
:04003c003403000089
:020000040000fa
:040040003403000085
:020000040000fa
:040044003403000081
:020000040000fa
:04004800340300007d
:020000040000fa
:04004c003403000079
:020000040000fa
:040050003403000075
:020000040000fa
:04005400c8020000de
:020000040000fa
:04005800340300006d
:020000040000fa
:04005c003403000069
:020000040000fa
:040060003403000065
:020000040000fa
:040064003403000061
:020000040000fa
:04006800340300005d
:020000040000fa
:04006c003403000059
:020000040000fa
:040070003403000055
:020000040000fa
:040074003403000051
:020000040000fa
:04007800340300004d
:020000040000fa
:04007c003403000049
:020000040000fa
:040080003403000045
:020000040000fa
:040084003403000041
:020000040000fa
:04008800340300003d
:020000040000fa
:04008c003403000039
:020000040000fa
:040090003403000035
:020000040000fa
:040094003403000031
:020000040000fa
:04009800340300002d
:020000040000fa
:04009c003403000029
:020000040000fa
:0400a0003403000025
:020000040000fa
:0400a4003403000021
:020000040000fa
:0400a800340300001d
:020000040000fa
:0400ac003403000019
:020000040000fa
:0400b0003403000015
:020000040000fa
:0400b4003403000011
:020000040000fa
:0400b800340300000d
:020000040000fa
:0400bc003403000009
:020000040000fa
:0400c0003403000005
:020000040000fa
:0400c4003403000001
:020000040000fa
:0400c80034030000fd
:020000040000fa
:0400cc0034030000f9
:020000040000fa
:0400d00034030000f5
:020000040000fa
:0400d40034030000f1
:020000040000fa
:0400d80034030000ed
:020000040000fa
:0400dc0034030000e9
:020000040000fa
:0400e00034030000e5
:020000040000fa
:0400e40034030000e1
:020000040000fa
:0400e80034030000dd
:020000040000fa
:0400ec0034030000d9
:020000040000fa
:0400f00034030000d5
:020000040000fa
:0400f40034030000d1
:020000040000fa
:0400f80034030000cd
:020000040000fa
:0400fc0034030000c9
:020000040000fa
:0401000034030000c4
:020000040000fa
:0401040034030000c0
:020000040000fa
:0401080034030000bc
:020000040000fa
:04010c0034030000b8
:020000040000fa
:0401100034030000b4
:020000040000fa
:0401140034030000b0
:020000040000fa
:0401180034030000ac
:020000040000fa
:04011c0034030000a8
:020000040000fa
:0401200034030000a4
:020000040000fa
:0401240034030000a0
:020000040000fa
:04012800340300009c
:020000040000fa
:04012c003403000098
:020000040000fa
:040130003403000094
:020000040000fa
:040134003403000090
:020000040000fa
:04013800340300008c
:020000040000fa
:04013c003403000088
:020000040000fa
:040140003403000084
:020000040000fa
:040144003403000080
:020000040000fa
:04014800340300007c
:020000040000fa
:04014c003403000078
:020000040000fa
:040150003403000074
:020000040000fa
:040154003403000070
:020000040000fa
:04015800340300006c
:020000040000fa
:04015c003403000068
:020000040000fa
:040160003403000064
:020000040000fa
:040164003403000060
:020000040000fa
:0402080034030000bb
:020000040000fa
:04020c0034030000b7
:020000040000fa
:0402100034030000b3
:020000040000fa
:0402140034030000af
:020000040000fa
:0402180034030000ab
:020000040000fa
:04021c0034030000a7
:020000040000fa
:0402200034030000a3
:020000040000fa
:04022400340300009f
:020000040000fa
:04022800340300009b
:020000040000fa
:04022c003403000097
:020000040000fa
:040230003403000093
:020000040000fa
:04023400340300008f
:020000040000fa
:04023800340300008b
:020000040000fa
:04023c003403000087
:020000040000fa
:040240003403000083
:020000040000fa
:04024400340300007f
:020000040000fa
:04024800340300007b
:020000040000fa
:04024c003403000077
:020000040000fa
:040250003403000073
:020000040000fa
:04025400c8020000dc
:020000040000fa
:04025800340300006b
:020000040000fa
:04025c003403000067
:020000040000fa
:040260003403000063
:020000040000fa
:04026400340300005f
:020000040000fa
:04026800340300005b
:020000040000fa
:04026c003403000057
:020000040000fa
:040270003403000053
:020000040000fa
:04027400340300004f
:020000040000fa
:04027800340300004b
:020000040000fa
:04027c003403000047
:020000040000fa
:040280003403000043
:020000040000fa
:04028400340300003f
:020000040000fa
:04028800340300003b
:020000040000fa
:04028c003403000037
:020000040000fa
:040290003403000033
:020000040000fa
:04029400340300002f
:020000040000fa
:04029800340300002b
:020000040000fa
:04029c003403000027
:020000040000fa
:0402a0003403000023
:020000040000fa
:0402a400340300001f
:020000040000fa
:0402a800340300001b
:020000040000fa
:0402ac003403000017
:020000040000fa
:0402b0003403000013
:020000040000fa
:0402b400340300000f
:020000040000fa
:0402b800340300000b
:020000040000fa
:0402bc003403000007
:020000040000fa
:0402c0003403000003
:020000040000fa
:0402c40034030000ff
:020000040000fa
:0402c80034030000fb
:020000040000fa
:0402cc0034030000f7
:020000040000fa
:0402d00034030000f3
:020000040000fa
:0402d40034030000ef
:020000040000fa
:0402d80034030000eb
:020000040000fa
:0402dc0034030000e7
:020000040000fa
:0402e00034030000e3
:020000040000fa
:0402e40034030000df
:020000040000fa
:0402e80034030000db
:020000040000fa
:0402ec0034030000d7
:020000040000fa
:0402f00034030000d3
:020000040000fa
:0402f40034030000cf
:020000040000fa
:0402f80034030000cb
:020000040000fa
:0402fc0034030000c7
:020000040000fa
:0403000034030000c2
:020000040000fa
:0403040034030000be
:020000040000fa
:0403080034030000ba
:020000040000fa
:04030c0034030000b6
:020000040000fa
:0403100034030000b2
:020000040000fa
:0403140034030000ae
:020000040000fa
:0403180034030000aa
:020000040000fa
:04031c0034030000a6
:020000040000fa
:0403200034030000a2
:020000040000fa
:04032400340300009e
:020000040000fa
:04032800340300009a
:020000040000fa
:04032c003403000096
:020000040000fa
:040330003403000092
:020000040000fa
:04033400340300008e
:020000040000fa
:04033800340300008a
:020000040000fa
:04033c003403000086
:020000040000fa
:040340003403000082
:020000040000fa
:04034400340300007e
:020000040000fa
:04034800340300007a
:020000040000fa
:04034c003403000076
:020000040000fa
:040350003403000072
:020000040000fa
:04035400340300006e
:020000040000fa
:04035800340300006a
:020000040000fa
:04035c003403000066
:020000040000fa
:040360003403000062
:020000040000fa
:04036400340300005e
:020000040000fa
:100400002f8020000e7f24000e01880000000000d5
:10041000000020000000e000020032000001200087
:100420002002880014000700910007000000e0008f
:1004300003003a00e05620000100200002003700cf
:100440000000200001002000810f70000100320038
:1004500014000700000020000000e000020032004d
:10046000000002000000000056040200000000002e
:100470000040da000000fe004440a900c011200046
:100480000000e0000300320000002000a00188000e
:100490004440a800000006008a1f78008b1f7800e7
:1004a0000000060091018800800478000000eb0045
:1004b0001a003700e284440032a0b4009905ba0063
:1004c000e284440032a0b4009906ba00e2844400f9
:1004d00032a0b4000006eb00476fde00fd07b2005b
:1004e000636ce10003003a00ebff07000000eb0043
:1004f0000a003700606ce10004003a00005deb0088
:100500008b05e900fdff3e00040037006168e10053
:10051000010032000086eb000b00070019c7ba008b
:100520001905ba000e04e00003003a000a00e000da
:10053000e0ff3a0000000600fe07b2009e018800be
:100540008a047800f5ff3700395dba008b05e900b1
:100550000c003200295dba008b05e900080032006a
:100560000c00e00003003a00e284440032a0b40032
:10057000f5ff370019ddba008b05e900faff3a00f4
:100580008904e800e184440032a0b40000000600c1
:100590003600f800809fbe00829fbe00849fbe0090
:1005a000869fbe003400f80000002000a0018800f3
:1005b0000000fa00000000001011800061006000df
:1005c0000000e000fcff3200301180002105200017
:1005d000810f50000d00320031052000810f5000c6
:1005e0000400320061042000810f5000040032003a
:1005f0000900370030c5b3000301070006003700cb
:1006000060c4b300000107000300370020c5b30039
:10061000fd00070000000000702284009040780078
:100620000124a000014878000000240021002000df
:100630001c01070070228400904078000124a10072
:10064000014878008560a9000080fa003400f900b4
:100650004f03be004f02be004f01be004f00be0060
:100660003600f900004006000040da000000fe00fd
:040670000000050081
:020000040000fa
:100674000d0a00002d2d00002d200000436f000006
:100684006e740000726f00006c200000646500004e
:10069400204d00006f7400006f72000020440000c1
:1006a400432000002d2d00002d0d00000a00000045
:1006b400496e000067720000657300006520000049
:1006c400756e0000206300006f6d0000616e000015
:1006d400646f00003a0d00000a000000532000007f
:1006e4002d20000044650000746500006e65000064
:1006f40072200000656c0000206d00006f74000023
:100704006f7200000d0a000000460000202d00005a
:1007140020410000766100006e7a000061720000e2
:10072400206500006c2000006d6f0000746f0000f5
:10073400720d00000a000000522000002d2000006d
:100744005265000076650000727400006972000052
:10075400206500006c2000006d6f0000746f0000c5
:10076400720d00000a000000496e0000677200006c
:1007740065730000652000007375000020650000ab
:100784006c65000063630000696f00006e3a00004e
:10079400200000000d0a00004d6f0000746f00007f
:1007a4007220000064650000746500006e6900003a
:1007b400646f00002e0d00000a0000000d0a000006
:1007c4004d6f0000746f000072200000617600001d
:1007d400616e00007a6100006e6400006f2e0000fc
:1007e4000d0a0000000d00000a4d00006f740000a7
:1007f4006f720000206500006e200000726500002a
:100804007665000072730000612e00000d0a00007e
:10081400000d00000a430000616d000062690000e1
:100824006172000020760000656c00006f630000b8
:10083400696400006164000020640000656c0000cd
:10084400206d00006f7400006f7200002e0d000018
:100854000a0000000d0a0000436f00006d610000f3
:100864006e6400006f2000006e6f000020720000b4
:10087400656300006f6e00006f6300006964000030
:100884006f2e00000d0a000000000000c0020000ee
:10089400c8020000c4020000cc020000c202000032
:0808a400ca0200004207000037
:020000040000fa
:1008ac000000fa000c0007008580a9000000000081
:1008bc001111800000102000008060000000e0009a
:1008cc00fbff32002a00070000002800010720006f
:1008dc0071000700f4ff37000000fa00213580009a
:1008ec0000fe2f00008060000000a0002035880072
:1008fc002136800000fe2f00008060003000b30025
:10090c002036880070228400904078000124a100d9
:10091c000148780070228400904078000134a100d6
:10092c0001487800020007000080fa000000060071
:10093c000000fa002002a9000111800090ff2f0096
:10094c00008060000011880020a2a9002062a9008c
:10095c00700120004011880023e2a9009560a800d6
:10096c0021e2a8002342a8000080fa000000060043
:10097c000000fa00a03328000c000700a035280066
:10098c000a0007000037280008000700703828000c
:10099c0006000700e039280004000700603b28002f
:1009ac00020007000080fa00000006000200fa00b6
:1009bc00000f78000b0037000000000011118000c0
:1009cc0000202000008060000000e000fbff3a00e7
:1009dc001e007800104078000000fb0020118800f9
:1009ec001e0fe8001e007800104078000004e000a4
:1009fc00f1ff3a000080fa00000006000200fa0045
:100a0c00004f78001e00fb0001052000810f5000f4
:100a1c001900320001052000810f500004003c0039
:100a2c0061042000810f50000b00320015003700cc
:100a3c0021052000810f50000b00320031052000f1
:100a4c00810f50000f003a00c03c2800d7ff070070
:100a5c00cc02a9000e003700003e2800d3ff07008f
:100a6c00cc02a8000a003700503f2800cfff070037
:100a7c00cc22a80006003700b0402800cbff0700ae
:100a8c0003003700c0422800c8ff07000000000028
:080a9c000080fa0000000600d2
:020000040000fa
:100aa400f03fb1000180b10006003500ee030900fb
:100ab40000000000403fb1000180b100fbff3d0099
:100ac4001000b000203fb000020035000080090093
:080ad400000000000000060014
:020000040000fa
:100adc000008000002000000000000000000000000
:020000040000fa
:0200000401f009
:04000c008000000070
:020000040000fa
:0200000401f009
:040014005f00000089
:020000040000fa
:0200000401f009
:04001c00ddff000004
:00000001FF
