:020000040000fa
:080000000002040000000000f2
:020000040000fa
:040008001e030000d3
:020000040000fa
:04000c001e030000cf
:020000040000fa
:040010001e030000cb
:020000040000fa
:040014001e030000c7
:020000040000fa
:040018001e030000c3
:020000040000fa
:04001c001e030000bf
:020000040000fa
:040020001e030000bb
:020000040000fa
:040024001e030000b7
:020000040000fa
:040028001e030000b3
:020000040000fa
:04002c001e030000af
:020000040000fa
:040030001e030000ab
:020000040000fa
:040034001e030000a7
:020000040000fa
:040038001e030000a3
:020000040000fa
:04003c001e0300009f
:020000040000fa
:040040001e0300009b
:020000040000fa
:040044001e03000097
:020000040000fa
:040048001e03000093
:020000040000fa
:04004c001e0300008f
:020000040000fa
:040050001e0300008b
:020000040000fa
:04005400c8020000de
:020000040000fa
:040058001e03000083
:020000040000fa
:04005c001e0300007f
:020000040000fa
:040060001e0300007b
:020000040000fa
:040064001e03000077
:020000040000fa
:040068001e03000073
:020000040000fa
:04006c001e0300006f
:020000040000fa
:040070001e0300006b
:020000040000fa
:040074001e03000067
:020000040000fa
:040078001e03000063
:020000040000fa
:04007c001e0300005f
:020000040000fa
:040080001e0300005b
:020000040000fa
:040084001e03000057
:020000040000fa
:040088001e03000053
:020000040000fa
:04008c001e0300004f
:020000040000fa
:040090001e0300004b
:020000040000fa
:040094001e03000047
:020000040000fa
:040098001e03000043
:020000040000fa
:04009c001e0300003f
:020000040000fa
:0400a0001e0300003b
:020000040000fa
:0400a4001e03000037
:020000040000fa
:0400a8001e03000033
:020000040000fa
:0400ac001e0300002f
:020000040000fa
:0400b0001e0300002b
:020000040000fa
:0400b4001e03000027
:020000040000fa
:0400b8001e03000023
:020000040000fa
:0400bc001e0300001f
:020000040000fa
:0400c0001e0300001b
:020000040000fa
:0400c4001e03000017
:020000040000fa
:0400c8001e03000013
:020000040000fa
:0400cc001e0300000f
:020000040000fa
:0400d0001e0300000b
:020000040000fa
:0400d4001e03000007
:020000040000fa
:0400d8001e03000003
:020000040000fa
:0400dc001e030000ff
:020000040000fa
:0400e0001e030000fb
:020000040000fa
:0400e4001e030000f7
:020000040000fa
:0400e8001e030000f3
:020000040000fa
:0400ec001e030000ef
:020000040000fa
:0400f0001e030000eb
:020000040000fa
:0400f4001e030000e7
:020000040000fa
:0400f8001e030000e3
:020000040000fa
:0400fc001e030000df
:020000040000fa
:040100001e030000da
:020000040000fa
:040104001e030000d6
:020000040000fa
:040108001e030000d2
:020000040000fa
:04010c001e030000ce
:020000040000fa
:040110001e030000ca
:020000040000fa
:040114001e030000c6
:020000040000fa
:040118001e030000c2
:020000040000fa
:04011c001e030000be
:020000040000fa
:040120001e030000ba
:020000040000fa
:040124001e030000b6
:020000040000fa
:040128001e030000b2
:020000040000fa
:04012c001e030000ae
:020000040000fa
:040130001e030000aa
:020000040000fa
:040134001e030000a6
:020000040000fa
:040138001e030000a2
:020000040000fa
:04013c001e0300009e
:020000040000fa
:040140001e0300009a
:020000040000fa
:040144001e03000096
:020000040000fa
:040148001e03000092
:020000040000fa
:04014c001e0300008e
:020000040000fa
:040150001e0300008a
:020000040000fa
:040154001e03000086
:020000040000fa
:040158001e03000082
:020000040000fa
:04015c001e0300007e
:020000040000fa
:040160001e0300007a
:020000040000fa
:040164001e03000076
:020000040000fa
:040208001e030000d1
:020000040000fa
:04020c001e030000cd
:020000040000fa
:040210001e030000c9
:020000040000fa
:040214001e030000c5
:020000040000fa
:040218001e030000c1
:020000040000fa
:04021c001e030000bd
:020000040000fa
:040220001e030000b9
:020000040000fa
:040224001e030000b5
:020000040000fa
:040228001e030000b1
:020000040000fa
:04022c001e030000ad
:020000040000fa
:040230001e030000a9
:020000040000fa
:040234001e030000a5
:020000040000fa
:040238001e030000a1
:020000040000fa
:04023c001e0300009d
:020000040000fa
:040240001e03000099
:020000040000fa
:040244001e03000095
:020000040000fa
:040248001e03000091
:020000040000fa
:04024c001e0300008d
:020000040000fa
:040250001e03000089
:020000040000fa
:04025400c8020000dc
:020000040000fa
:040258001e03000081
:020000040000fa
:04025c001e0300007d
:020000040000fa
:040260001e03000079
:020000040000fa
:040264001e03000075
:020000040000fa
:040268001e03000071
:020000040000fa
:04026c001e0300006d
:020000040000fa
:040270001e03000069
:020000040000fa
:040274001e03000065
:020000040000fa
:040278001e03000061
:020000040000fa
:04027c001e0300005d
:020000040000fa
:040280001e03000059
:020000040000fa
:040284001e03000055
:020000040000fa
:040288001e03000051
:020000040000fa
:04028c001e0300004d
:020000040000fa
:040290001e03000049
:020000040000fa
:040294001e03000045
:020000040000fa
:040298001e03000041
:020000040000fa
:04029c001e0300003d
:020000040000fa
:0402a0001e03000039
:020000040000fa
:0402a4001e03000035
:020000040000fa
:0402a8001e03000031
:020000040000fa
:0402ac001e0300002d
:020000040000fa
:0402b0001e03000029
:020000040000fa
:0402b4001e03000025
:020000040000fa
:0402b8001e03000021
:020000040000fa
:0402bc001e0300001d
:020000040000fa
:0402c0001e03000019
:020000040000fa
:0402c4001e03000015
:020000040000fa
:0402c8001e03000011
:020000040000fa
:0402cc001e0300000d
:020000040000fa
:0402d0001e03000009
:020000040000fa
:0402d4001e03000005
:020000040000fa
:0402d8001e03000001
:020000040000fa
:0402dc001e030000fd
:020000040000fa
:0402e0001e030000f9
:020000040000fa
:0402e4001e030000f5
:020000040000fa
:0402e8001e030000f1
:020000040000fa
:0402ec001e030000ed
:020000040000fa
:0402f0001e030000e9
:020000040000fa
:0402f4001e030000e5
:020000040000fa
:0402f8001e030000e1
:020000040000fa
:0402fc001e030000dd
:020000040000fa
:040300001e030000d8
:020000040000fa
:040304001e030000d4
:020000040000fa
:040308001e030000d0
:020000040000fa
:04030c001e030000cc
:020000040000fa
:040310001e030000c8
:020000040000fa
:040314001e030000c4
:020000040000fa
:040318001e030000c0
:020000040000fa
:04031c001e030000bc
:020000040000fa
:040320001e030000b8
:020000040000fa
:040324001e030000b4
:020000040000fa
:040328001e030000b0
:020000040000fa
:04032c001e030000ac
:020000040000fa
:040330001e030000a8
:020000040000fa
:040334001e030000a4
:020000040000fa
:040338001e030000a0
:020000040000fa
:04033c001e0300009c
:020000040000fa
:040340001e03000098
:020000040000fa
:040344001e03000094
:020000040000fa
:040348001e03000090
:020000040000fa
:04034c001e0300008c
:020000040000fa
:040350001e03000088
:020000040000fa
:040354001e03000084
:020000040000fa
:040358001e03000080
:020000040000fa
:04035c001e0300007c
:020000040000fa
:040360001e03000078
:020000040000fa
:040364001e03000074
:020000040000fa
:100400002f8020000e7f24000e01880000000000d5
:10041000000020000000e000020032000001200087
:100420002002880014000700860007000000e0009a
:1004300003003a00c06120000100200002003700e4
:100440000000200001002000810f70000100320038
:1004500014000700000020000000e000020032004d
:100460000000020000000000500402000000000034
:100470000040da000000fe004440a900c012200045
:100480000000e0000300320000002000a00188000e
:100490004440a800000006008a1f78008b1f7800e7
:1004a0000000060091018800800478000000eb0045
:1004b0001a003700e284440032a0b4009905ba0063
:1004c000e284440032a0b4009906ba00e2844400f9
:1004d00032a0b4000006eb00476fde00fd07b2005b
:1004e000636ce10003003a00ebff07000000eb0043
:1004f0000a003700606ce10004003a00005deb0088
:100500008b05e900fdff3e00040037006168e10053
:10051000010032000086eb000b00070019c7ba008b
:100520001905ba000e04e00003003a000a00e000da
:10053000e0ff3a0000000600fe07b2009e018800be
:100540008a047800f5ff3700395dba008b05e900b1
:100550000c003200295dba008b05e900080032006a
:100560000c00e00003003a00e284440032a0b40032
:10057000f5ff370019ddba008b05e900faff3a00f4
:100580008904e800e184440032a0b40000000600c1
:100590003600f800809fbe00829fbe00849fbe0090
:1005a000869fbe003400f80000002000a0018800f3
:1005b0000200fa0010118000640060000000e000fa
:1005c000020032008560a90014003700101180007d
:1005d000620060000000e000030032002222a90057
:1005e0008560a9000d0037001011800061006000d7
:1005f0000000e000080032004022840090407800b3
:100600000124a0000148780030118000004f7800dc
:100610001e407800f90007008560a9000080fa00fc
:100620003400f9004f03be004f02be004f01be0070
:100630004f00be003600f900004006000040da001e
:080640000000fe0000000500af
:020000040000fa
:100648000d0a00002d2d00002d200000436f000032
:100658006e740000726f00006c200000646500007a
:10066800204d00006f7400006f72000020440000ed
:10067800432000002d2d00002d0d00000a00000071
:10068800496e000067720000657300006520000075
:10069800756e0000206300006f6d0000616e000041
:1006a800646f00003a0d00000a00000053200000ab
:1006b8002d20000044650000746500006e65000090
:1006c80072200000656c0000206d00006f7400004f
:1006d8006f7200000d0a000000460000202d000087
:1006e80020410000766100006e7a0000617200000f
:1006f800206500006c2000006d6f0000746f000022
:10070800720d00000a000000522000002d20000099
:10071800526500007665000072740000697200007e
:10072800206500006c2000006d6f0000746f0000f1
:10073800720d00000a000000496e00006772000098
:1007480065730000652000007375000020650000d7
:100758006c65000063630000696f00006e3a00007a
:10076800200000000d0a00004d6f0000746f0000ab
:100778007220000061760000616e00007a6100005e
:100788006e6400006f2e00000d0a0000000d0000ce
:100798000a4d00006f7400006f72000020650000b1
:1007a8006e2000007265000076650000727300001c
:1007b800612e00000d0a0000000d00000a43000031
:1007c8006f6d0000616e0000646f0000206e000015
:1007d8006f20000072650000636f00006e6f0000fc
:1007e80063690000646f00002e0d00000a0000001d
:1007f8000d0a00004d6f0000746f000072200000a9
:1008080064650000746500006e690000646f000094
:100818002e0d00000a0000000d0a000043610000d0
:100828006d620000696100006e6400006f200000c6
:1008380064690000726500006363000069f30000ea
:100848006e2e00000d0a0000000d00000a45000091
:1008580073740000616400006f200000646500008c
:10086800736300006f6e00006f630000696400002e
:100878006f2e00000d0a000000000000c0020000fa
:10088800c8020000c4020000cc020000c20200003e
:08089800ca0200004207000043
:020000040000fa
:1008a0000000fa00050007003100070000002000ea
:1008b000110e2000d2000700fbff37000000fa00f5
:1008c0002135800000fe2f00008060000000a000a5
:1008d000203588002136800000fe2f000080600057
:1008e0003000b30020368800402284009040780019
:1008f0000124a10001487800402284009040780043
:100900000134a10001487800020007000080fa00cd
:10091000000006000000fa002002a900011180007a
:1009200090ff2f00008060000011880020a2a90025
:100930002062a90001118000f0cf2f00008060002c
:100940000011880070012000401188001111800002
:10095000f0f32f0000806000101188009560a8005f
:1009600021e2a8002342a8000080fa00000006004f
:100970000000fa00403228000c0007004034280034
:100980000a000700a03528000800070010372800db
:10099000060007008038280004000700003a2800fd
:1009a000020007000080fa00000006000200fa00c2
:1009b000000f78000b0037000000000011118000cc
:1009c00000202000008060000000e000fbff3a00f3
:1009d0001e007800104078000000fb002011880005
:1009e0001e0fe8001e007800104078000004e000b0
:1009f000f1ff3a000080fa00000006000200fa0051
:100a0000004f780000408000e10f500022003200cb
:100a1000e10f500003003900e20f50003e003200a9
:100a20007200370060c4b3009e40780080cf500051
:100a300009003a00603b2800dcff070040228400e8
:100a4000904078000124a0000148780010002000a8
:100a5000004088006800370020c5b3009e40780041
:100a600080cf500009003a00b03c2800cfff0700bb
:100a700040228400904078000134a00001487800b2
:100a800010002000004088005b003700103e280066
:100a9000c6ff07005800370030c5b3009e407800fd
:100aa00080cf50000c003a00c03f2800bfff070075
:100ab00040228400904078000124a1000148780081
:100ac00040228400904078000134a1000148780061
:100ad0000028ef004800370060c4b3009e40780053
:100ae00080cf50000400320020c5b3009e40780043
:100af00080cf500005003a0000412800abff0700fe
:100b000020002000004088003b003700103e2800f5
:100b1000a6ff07003800370060c4b3009e4078008d
:100b200080cf50000d003a00603b28009fff070077
:100b300040228400904078000124a0000148780001
:100b400040228400904078000134a10001487800e0
:100b500010002000004088002700370020c5b300a7
:100b60009e40780080cf50000d003a00b03c280035
:100b70008eff070040228400904078000124a100ed
:100b80000148780040228400904078000134a000a1
:100b9000014878001000200000408800160037004f
:100ba00030c5b3009e40780080cf50000c003a0062
:100bb000c03f28007dff070040228400904078005d
:100bc0000124a10001487800402284009040780070
:100bd0000134a100014878000028ef00060037002a
:100be000103e280071ff07000300370090422800e4
:100bf0006eff0700000000000080fa000000060001
:020000040000fa
:100c0000f03fb1000180b10006003500ee0309009d
:100c100000000000403fb1000180b100fbff3d003b
:100c20001000b000203fb000020035000080090035
:080c30000000000000000600b6
:020000040000fa
:100c380000080000020000000000000000000000a2
:020000040000fa
:0200000401f009
:04000c008000000070
:020000040000fa
:0200000401f009
:040014005f00000089
:020000040000fa
:0200000401f009
:04001c00ddff000004
:00000001FF
